{
  "_format": "hh-sol-artifact-1",
  "contractName": "ComputeMarketplace",
  "sourceName": "contracts/ComputeMarketplace.sol",
  "abi": [
    {
      "anonymous": false,
      "inputs": [
        {
          "indexed": false,
          "internalType": "uint256",
          "name": "instanceId",
          "type": "uint256"
        },
        {
          "indexed": false,
          "internalType": "string",
          "name": "instanceType",
          "type": "string"
        },
        {
          "indexed": false,
          "internalType": "uint256",
          "name": "cost",
          "type": "uint256"
        },
        {
          "indexed": false,
          "internalType": "address",
          "name": "provider",
          "type": "address"
        }
      ],
      "name": "InstanceRegistered",
      "type": "event"
    },
    {
      "anonymous": false,
      "inputs": [
        {
          "indexed": false,
          "internalType": "uint256",
          "name": "instanceId",
          "type": "uint256"
        },
        {
          "indexed": false,
          "internalType": "address",
          "name": "renter",
          "type": "address"
        }
      ],
      "name": "InstanceRented",
      "type": "event"
    },
    {
      "inputs": [
        {
          "internalType": "uint256",
          "name": "instanceId",
          "type": "uint256"
        }
      ],
      "name": "getInstance",
      "outputs": [
        {
          "components": [
            {
              "internalType": "string",
              "name": "instanceType",
              "type": "string"
            },
            {
              "internalType": "uint256",
              "name": "cost",
              "type": "uint256"
            },
            {
              "internalType": "address",
              "name": "provider",
              "type": "address"
            },
            {
              "internalType": "bool",
              "name": "isAvailable",
              "type": "bool"
            }
          ],
          "internalType": "struct ComputeMarketplace.Instance",
          "name": "",
          "type": "tuple"
        }
      ],
      "stateMutability": "view",
      "type": "function"
    },
    {
      "inputs": [],
      "name": "instanceCount",
      "outputs": [
        {
          "internalType": "uint256",
          "name": "",
          "type": "uint256"
        }
      ],
      "stateMutability": "view",
      "type": "function"
    },
    {
      "inputs": [
        {
          "internalType": "uint256",
          "name": "",
          "type": "uint256"
        }
      ],
      "name": "instances",
      "outputs": [
        {
          "internalType": "string",
          "name": "instanceType",
          "type": "string"
        },
        {
          "internalType": "uint256",
          "name": "cost",
          "type": "uint256"
        },
        {
          "internalType": "address",
          "name": "provider",
          "type": "address"
        },
        {
          "internalType": "bool",
          "name": "isAvailable",
          "type": "bool"
        }
      ],
      "stateMutability": "view",
      "type": "function"
    },
    {
      "inputs": [
        {
          "internalType": "string",
          "name": "instanceType",
          "type": "string"
        },
        {
          "internalType": "uint256",
          "name": "cost",
          "type": "uint256"
        }
      ],
      "name": "registerInstance",
      "outputs": [],
      "stateMutability": "nonpayable",
      "type": "function"
    },
    {
      "inputs": [
        {
          "internalType": "uint256",
          "name": "instanceId",
          "type": "uint256"
        }
      ],
      "name": "rentInstance",
      "outputs": [],
      "stateMutability": "payable",
      "type": "function"
    }
  ],
  "bytecode": "0x608060405234801561001057600080fd5b50611033806100206000396000f3fe60806040526004361061004a5760003560e01c8063a2f7b3a51461004f578063b9ca48eb1461008f578063d687988e146100b8578063ebd348de146100d4578063ec56c71614610111575b600080fd5b34801561005b57600080fd5b50610076600480360381019061007191906106d3565b61013c565b60405161008694939291906107fb565b60405180910390f35b34801561009b57600080fd5b506100b660048036038101906100b1919061097c565b610221565b005b6100d260048036038101906100cd91906106d3565b610397565b005b3480156100e057600080fd5b506100fb60048036038101906100f691906106d3565b61050a565b6040516101089190610ab2565b60405180910390f35b34801561011d57600080fd5b50610126610643565b6040516101339190610ad4565b60405180910390f35b600060205280600052604060002060009150905080600001805461015f90610b1e565b80601f016020809104026020016040519081016040528092919081815260200182805461018b90610b1e565b80156101d85780601f106101ad576101008083540402835291602001916101d8565b820191906000526020600020905b8154815290600101906020018083116101bb57829003601f168201915b5050505050908060010154908060020160009054906101000a900473ffffffffffffffffffffffffffffffffffffffff16908060020160149054906101000a900460ff16905084565b60008111610264576040517f08c379a000000000000000000000000000000000000000000000000000000000815260040161025b90610b9b565b60405180910390fd5b60405180608001604052808381526020018281526020013373ffffffffffffffffffffffffffffffffffffffff16815260200160011515815250600080600154815260200190815260200160002060008201518160000190816102c79190610d67565b506020820151816001015560408201518160020160006101000a81548173ffffffffffffffffffffffffffffffffffffffff021916908373ffffffffffffffffffffffffffffffffffffffff16021790555060608201518160020160146101000a81548160ff0219169083151502179055509050507f9248a28ec7054e752232b1b9660f9f25326a677d87e7039943db33ea01d5ed6a6001548383336040516103739493929190610e39565b60405180910390a16001600081548092919061038e90610eb4565b91905055505050565b600080600083815260200190815260200160002090508060020160149054906101000a900460ff166103fe576040517f08c379a00000000000000000000000000000000000000000000000000000000081526004016103f590610f48565b60405180910390fd5b8060010154341015610445576040517f08c379a000000000000000000000000000000000000000000000000000000000815260040161043c90610fb4565b60405180910390fd5b60008160020160146101000a81548160ff0219169083151502179055508060020160009054906101000a900473ffffffffffffffffffffffffffffffffffffffff1673ffffffffffffffffffffffffffffffffffffffff166108fc349081150290604051600060405180830381858888f193505050501580156104cc573d6000803e3d6000fd5b507f9cd5105394e5b00d22a5fcdb4992dde92390613492c0f4d5ae2bc3300857d77382336040516104fe929190610fd4565b60405180910390a15050565b610512610649565b60008083815260200190815260200160002060405180608001604052908160008201805461053f90610b1e565b80601f016020809104026020016040519081016040528092919081815260200182805461056b90610b1e565b80156105b85780601f1061058d576101008083540402835291602001916105b8565b820191906000526020600020905b81548152906001019060200180831161059b57829003601f168201915b50505050508152602001600182015481526020016002820160009054906101000a900473ffffffffffffffffffffffffffffffffffffffff1673ffffffffffffffffffffffffffffffffffffffff1673ffffffffffffffffffffffffffffffffffffffff1681526020016002820160149054906101000a900460ff1615151515815250509050919050565b60015481565b60405180608001604052806060815260200160008152602001600073ffffffffffffffffffffffffffffffffffffffff1681526020016000151581525090565b6000604051905090565b600080fd5b600080fd5b6000819050919050565b6106b08161069d565b81146106bb57600080fd5b50565b6000813590506106cd816106a7565b92915050565b6000602082840312156106e9576106e8610693565b5b60006106f7848285016106be565b91505092915050565b600081519050919050565b600082825260208201905092915050565b60005b8381101561073a57808201518184015260208101905061071f565b60008484015250505050565b6000601f19601f8301169050919050565b600061076282610700565b61076c818561070b565b935061077c81856020860161071c565b61078581610746565b840191505092915050565b6107998161069d565b82525050565b600073ffffffffffffffffffffffffffffffffffffffff82169050919050565b60006107ca8261079f565b9050919050565b6107da816107bf565b82525050565b60008115159050919050565b6107f5816107e0565b82525050565b600060808201905081810360008301526108158187610757565b90506108246020830186610790565b61083160408301856107d1565b61083e60608301846107ec565b95945050505050565b600080fd5b600080fd5b7f4e487b7100000000000000000000000000000000000000000000000000000000600052604160045260246000fd5b61088982610746565b810181811067ffffffffffffffff821117156108a8576108a7610851565b5b80604052505050565b60006108bb610689565b90506108c78282610880565b919050565b600067ffffffffffffffff8211156108e7576108e6610851565b5b6108f082610746565b9050602081019050919050565b82818337600083830152505050565b600061091f61091a846108cc565b6108b1565b90508281526020810184848401111561093b5761093a61084c565b5b6109468482856108fd565b509392505050565b600082601f83011261096357610962610847565b5b813561097384826020860161090c565b91505092915050565b6000806040838503121561099357610992610693565b5b600083013567ffffffffffffffff8111156109b1576109b0610698565b5b6109bd8582860161094e565b92505060206109ce858286016106be565b9150509250929050565b600082825260208201905092915050565b60006109f482610700565b6109fe81856109d8565b9350610a0e81856020860161071c565b610a1781610746565b840191505092915050565b610a2b8161069d565b82525050565b610a3a816107bf565b82525050565b610a49816107e0565b82525050565b60006080830160008301518482036000860152610a6c82826109e9565b9150506020830151610a816020860182610a22565b506040830151610a946040860182610a31565b506060830151610aa76060860182610a40565b508091505092915050565b60006020820190508181036000830152610acc8184610a4f565b905092915050565b6000602082019050610ae96000830184610790565b92915050565b7f4e487b7100000000000000000000000000000000000000000000000000000000600052602260045260246000fd5b60006002820490506001821680610b3657607f821691505b602082108103610b4957610b48610aef565b5b50919050565b7f436f7374206d7573742062652067726561746572207468616e20300000000000600082015250565b6000610b85601b8361070b565b9150610b9082610b4f565b602082019050919050565b60006020820190508181036000830152610bb481610b78565b9050919050565b60008190508160005260206000209050919050565b60006020601f8301049050919050565b600082821b905092915050565b600060088302610c1d7fffffffffffffffffffffffffffffffffffffffffffffffffffffffffffffffff82610be0565b610c278683610be0565b95508019841693508086168417925050509392505050565b6000819050919050565b6000610c64610c5f610c5a8461069d565b610c3f565b61069d565b9050919050565b6000819050919050565b610c7e83610c49565b610c92610c8a82610c6b565b848454610bed565b825550505050565b600090565b610ca7610c9a565b610cb2818484610c75565b505050565b5b81811015610cd657610ccb600082610c9f565b600181019050610cb8565b5050565b601f821115610d1b57610cec81610bbb565b610cf584610bd0565b81016020851015610d04578190505b610d18610d1085610bd0565b830182610cb7565b50505b505050565b600082821c905092915050565b6000610d3e60001984600802610d20565b1980831691505092915050565b6000610d578383610d2d565b9150826002028217905092915050565b610d7082610700565b67ffffffffffffffff811115610d8957610d88610851565b5b610d938254610b1e565b610d9e828285610cda565b600060209050601f831160018114610dd15760008415610dbf578287015190505b610dc98582610d4b565b865550610e31565b601f198416610ddf86610bbb565b60005b82811015610e0757848901518255600182019150602085019450602081019050610de2565b86831015610e245784890151610e20601f891682610d2d565b8355505b6001600288020188555050505b505050505050565b6000608082019050610e4e6000830187610790565b8181036020830152610e608186610757565b9050610e6f6040830185610790565b610e7c60608301846107d1565b95945050505050565b7f4e487b7100000000000000000000000000000000000000000000000000000000600052601160045260246000fd5b6000610ebf8261069d565b91507fffffffffffffffffffffffffffffffffffffffffffffffffffffffffffffffff8203610ef157610ef0610e85565b5b600182019050919050565b7f496e7374616e6365206973206e6f7420617661696c61626c6500000000000000600082015250565b6000610f3260198361070b565b9150610f3d82610efc565b602082019050919050565b60006020820190508181036000830152610f6181610f25565b9050919050565b7f496e73756666696369656e74207061796d656e74000000000000000000000000600082015250565b6000610f9e60148361070b565b9150610fa982610f68565b602082019050919050565b60006020820190508181036000830152610fcd81610f91565b9050919050565b6000604082019050610fe96000830185610790565b610ff660208301846107d1565b939250505056fea26469706673582212207be79e11279d9d13deed172f06a143a8006b759067f04f63b44949cf77ccf6fb64736f6c63430008120033",
  "linkReferences": {},
  "deployedLinkReferences": {}
}